:020000040800F2
:10000000501700200D03000849270008712500083B
:10001000E5260008D51C0008535500080000000024
:10002000000000000000000000000000EF3E00089B
:100030004D22000800000000C72C0008C54200083F
:1000400027030008270300082703000827030008E8
:1000500027030008270300082703000827030008D8
:1000600027030008270300082703000827030008C8
:1000700027030008270300082703000827030008B8
:1000800027030008270300082703000827030008A8
:100090002703000827030008270300082703000898
:1000A0002703000827030008270300082703000888
:1000B0002703000827030008270300082703000878
:1000C0002703000827030008270300082703000868
:1000D00027030008B5510008270300083D52000817
:1000E0002703000827030008270300082703000848
:1000F0002703000827030008270300082703000838
:100100002703000827030008270300082703000827
:10011000270300082703000827030008F543000809
:100120002703000827030008270300082703000807
:1001300027030008270300082703000827030008F7
:1001400027030008270300082703000827030008E7
:1001500027030008270300082703000827030008D7
:1001600027030008270300082703000827030008C7
:1001700027030008270300082703000827030008B7
:10018000270300082703000800F002F800F094F8A5
:100190000AA090E8000C82448344AAF10107DA45E2
:1001A00001D100F089F8AFF2090EBAE80F0013F0A0
:1001B000010F18BFFB1A43F001031847B49C00005D
:1001C000D49C0000103A24BF78C878C1FAD85207EE
:1001D00024BF30C830C144BF04680C6070470000C1
:1001E0000023002400250026103A28BF78C1FBD840
:1001F000520728BF30C148BF0B6070476E2900F01E
:100200004B83702900F09F84662907F0CA83652913
:1002100007F0C783672907F0C4836129AFF3008023
:1002200003681B0A28BF41F08001692900F0AE80F5
:10023000642900F0AB80752900F0A8806F2900F0D8
:100240002C84782900F06B84E92900F0C783E42925
:1002500000F0C483F52900F0C183EF2900F0298460
:10026000F82900F06A840368DB0928BF41F08001A7
:10027000632900F0FD86732900F00287E32900F06E
:100280000D87F32900F01287002070471FB507F093
:100290007EFB00F090F900F063FF040000200021D5
:1002A00006F040FD401C60600020002106F024FDA7
:1002B000E0601FBD10B510BD00F024FF1146FFF730
:1002C000E5FF06F01BFA01F001F803B4FFF7F2FFB7
:1002D00003BC06F01CF900000B49D1F800C04A68C5
:1002E0005CF8043B1068184442F8040B8C4528BFA6
:1002F000A1F1DC0C8A4228BFA1F1DC02C1F800C0E8
:100300004A6020F000407047E8100020094880470C
:1003100009480047FEE7FEE7FEE7FEE7FEE7FEE7E7
:10032000FEE7FEE7FEE7FEE704480549054A064BFF
:1003300070470000C94200088901000850110020E0
:100340005017002050130020501300207047000069
:100350001CB50C46064B7B4469460090204600F0D5
:10036000B4FA04460020694600F0C2FA20461CBDDB
:10037000970500000FB4044910B503AA029800F0D5
:10038000BDFA10BC5DF814FB280000202DE9F041F7
:100390000646002410687529314616A510D000F0D5
:1003A000E7F9002802DA404213A507E031688A071E
:1003B00001D512A502E0490704D511A5012401E0E9
:1003C00000F0DFF900210A2206F1240709E0B0FB62
:1003D000F2FCB0FBF2F302FB1C00303078541846FC
:1003E000491C0028F3D123462A463046BDE8F04197
:1003F00000F0F9B9000000002D0000002B00000003
:10040000200000002DE9F05F894604464FF0000A05
:10041000DFF874B1FB44C0F820A02046E1688847AB
:10042000002874D0252806D0D4E901219047206AFD
:10043000401C2062F1E700265F462046E1688847BD
:100440002028054607DB312D05D2781910F8200C3D
:1004500008B10643F1E7B00701D526F00406C4F859
:100460001CA00027C4F818A02A2D09D0284606F0A1
:1004700047F838B304EB8708303DC8F8185019E046
:1004800059F8041B204604EB87029161E168884714
:10049000012F054618D1E069002820DA26F0200651
:1004A0001DE0D8F8180000EB800005EB4000303864
:1004B000C8F818002046E1688847054606F020F88D
:1004C0000028EED1012F0AD02E2D08D12046E16858
:1004D00088477F1C0546022F46F02006C4DBA06932
:1004E000002803DA404246F00106A061F00701D07F
:1004F00026F010066C2D0BD0682D09D04C2D39D06C
:100500006A2D35D0742D35D07A2D33D016E038E0F1
:10051000E1682F4620468847B842054609D16C2F2E
:1005200026D04FF48060E1680643204688470546A0
:1005300004E06C2F1AD04FF4807006430DB3A5F180
:100540004100192802D8203546F400664A4629465B
:10055000204626604E46FFF751FE80B101280BD0A1
:10056000F61D26F0070000F1080956E74020E4E7F1
:100570008020D8E70020D6E706F104094DE7284699
:1005800052E7206ABDE8F09FA19500000B4910B525
:10059000A1F17C020A4CC2E93712372106E000EBD8
:1005A000104342F82130074B00FB03400B1EA1F122
:1005B0000101F4DC10BD0120E8E7000088100020F4
:1005C000E119D666CD0D010030B505460B462A4629
:1005D00013F8014B12F8010B08B1A042F8D01CB17E
:1005E000002802D06D1CF1E7284630BD10B5431C31
:1005F00002E010F8011B71B18107FAD14FF001320E
:1006000002C88C1A8C4314EAC211F9D0C01A0A0627
:1006100003D0C01E10BDC01A10BD0A0401D0801E38
:1006200010BD0902FCD0401E10BD40EA010370B5A8
:100630009B072ED14FF00136042A2AD308C810C9CF
:100640009D1B9D43121F15EAC61517D0D8B2E1B203
:10065000401A50EA056110D198B2A1B2401A50EA8E
:1006600005410AD123F07F4024F07F41401A50EA2F
:10067000052102D1180EA0EB146070BDA342DBD09F
:1006800018BA21BA884201D9012070BD4FF0FF305D
:1006900070BD0AB9002070BD10F8013B11F8014B84
:1006A00063B1A3420AD1521E08D010F8013B11F8E1
:1006B000014B1BB1A34201D1521EEDD1181B70BDDD
:1006C0004FF000020429C0F0128010F0030C00F07B
:1006D0004782CCF1040CBCF1020F18BF00F8012BCB
:1006E000A8BF20F8022BA1EB0C0100F039BA5FEA99
:1006F000C17C24BF00F8012B00F8012B48BF00F893
:10070000012B7047704770477047704710B500F075
:100710004DFA006810BD10B5044600F047FA0460B9
:1007200010BD70B5044685690068C10601D5302644
:1007300000E02026C00707D070BDD4E90121304673
:100740009047206A401C20626D1EF6D570BD70B5C2
:10075000044685690078C00707D170BDD4E901213E
:1007600020209047206A401C20626D1EF6D570BD87
:1007700009684A0501D540B27047C905FCD500B2E9
:10078000704709684A0501D5C0B27047C905FCD554
:1007900080B2704770B50C460546012A05D028780E
:1007A000800600D5EA69002302E0012305E05B1C16
:1007B000934202D2E05C0028F9D1A869E618C01A79
:1007C000A861286A184428622846FFF7AAFF04E0B7
:1007D000D5E9012114F8010B9047B442F8D328461B
:1007E000FFF7B5FF70BD2DE9F0470D4699469246DB
:1007F000044600F124080168880604D5E06921F068
:100800001001216000E00120A84201DD471B00E04B
:100810000027A1697A1902EB0900081AA061207863
:10082000C00602D42046FFF77CFF002608E0D4E98A
:1008300001211AF806009047206A401C761C2062AD
:100840004E45F4DB2078C0060AD52046FFF769FF45
:1008500006E0D4E9012130209047206A401C206244
:10086000381EA7F10107F4DC07E0D4E9012118F8EC
:1008700005009047206A401C2062281EA5F1010552
:10088000F3DC2046FFF763FF2078000602D5022044
:10089000BDE8F0870120FBE711680268006A530594
:1008A00001D508700AE0D30501D5088006E01306DB
:1008B00003D5C217C1E9000200E0086001207047BB
:1008C00001694A1C02610878704700B58FB0CDE914
:1008D00001310021059105497944CDE90310114604
:1008E0006846FFF78FFD0FB000BD0000E5FFFFFF7A
:1008F0000A6802F8010B0A6070470000074B70B5E8
:100900000D467B44FFF7E1FF0446284600F0D2FB8A
:1009100010B14FF0FF3070BD204670BD6B5D000020
:100920002DE9FF5F15468A460446DFF8AC80F8449F
:100930000027D8E900103E46CDE9001010E03AF853
:1009400016106A4602A800F0B9FB411C07D02178B6
:10095000890603D5E269391891420DD80744761CFF
:100960002078800602D5E069B84205DDAE42E6DBBC
:100970003AF816000028E2D1A069C01BA061204609
:10098000FFF7CFFED8E90010CDE90010002017E0F6
:100990003AF818106A4602A800F090FBB0F1FF3F49
:1009A00081460BD000250DF1080B05E0D4E90121AB
:1009B0001BF8050090476D1C4D45F7D308F1010069
:1009C000B0428046E4DB206A384420622046FFF7CC
:1009D000BEFEBDE8FF9F0000269100002DE9F0411A
:1009E0008046D21D22F007020025D2E90002F52937
:1009F00015A614D0011E72F1000106DA0023D0EB17
:100A0000030063EB020211A608E0D8F800108B0780
:100A100001D50FA602E0490701D50EA60125114612
:100A2000002408F1240704E000F0C4F830323A55FD
:100A3000641C50EA0102F7D12B463246214640465B
:100A4000BDE8F041FFF7CFBE000000002D00000020
:100A50002B0000002000000030B4002100F124042D
:100A600008E002F00705D208303542EA4372DB089D
:100A70006554491C52EA0305F3D10468002310A20F
:100A8000250707D5A40600D421B1C46901230DA20E
:100A9000641EC46130BCFFF7A6BE10B504462146F3
:100AA0001068FFF76EFE02462046BDE810400023A6
:100AB000D2E7D21D22F00701D1E90023CCE70000E4
:100AC0000000000030000000F0B40D460188090568
:100AD00002D5214C7C4402E01F4C7C440E340021A2
:100AE00000F1240608E002F00F071209E75D42EA70
:100AF00003721B097754491C52EA0307F3D10278A9
:100B00000023120704D5702D06D009B10223113439
:100B10002246F0BCFFF767BE01231034F8E770B53A
:100B200004460D4621461068FFF72BFE0246294673
:100B30002046BDE870400023C6E7D21D22F007031F
:100B4000D3E90023C0E70368126843F02003036081
:100B50000823C3610023B7E7888F00004FF000022D
:100B600000B5134694469646203922BFA0E80C50A3
:100B7000A0E80C50B1F12001BFF4F7AF090728BF7E
:100B8000A0E80C5048BF0CC05DF804EB890028BFFA
:100B900040F8042B08BF704748BF20F8022B11F023
:100BA000804F18BF00F8012B7047000000487047C5
:100BB000F010002030B5B0F10A024FEA900E71F14A
:100BC00000034EEA817EB0EB0E0061EB91014FEA2B
:100BD000101E4EEA017E10EB0E0041EB11114FEAA0
:100BE000102E4EEA016E10EB0E0041EB11214FEA80
:100BF000104E4EEA014E10EB0E0041EB1141401831
:100C000041F100014FEAD00040EA41704FEAD101C2
:100C100010EB80054FEA810444EA907444EB010430
:100C20006D1944EB0404521BA3414FF0000348BF6D
:100C30000A3200D530BD401C41F1000130BD704783
:100C40002DE9FF4F0C461E464FF0FF378BB0D2E91F
:100C50000001DDF860800A908A46C1F30A5505B9A3
:100C60003D46002108464FF00000BAF1000F00F4A5
:100C7000400005DA00EB80004FF4400101EA50002B
:100C80004FEA9059B9F1010F00DDB9460A9850EAD0
:100C90004A000ED044F61050A5F2FF3545432F14FC
:100CA000B8F1000F1ED07542291E1EDDC9F10002E9
:100CB0001CE0B8F1010F4FF0000001D0302103E03B
:100CC000F24305E02154401CB042FBDB30460022D9
:100CD000002121540B99C1F80880C1E900200FB010
:100CE000BDE8F08FBD1B6D1CDEE74A4600DA6942A5
:100CF00006A800F079FA06AB93E8070003AB83E897
:100D0000070050460A9900F02BFB8DE80700A0F57C
:100D100000501F3800900398002D0ADD42F21F0199
:100D20004A460844002303A90390684600F094FD56
:100D300009E0A0F500504A461F38002303A903909C
:100D4000684600F09EFD8DE807000004000C03D00B
:100D50004FF0FF30410800E01046B8F1000F03D01B
:100D60000022009215461EE0751E05D4FFF722FFF3
:100D7000303262556D1EF9D5B3460122084302D0C8
:100D800000227F1C04E02078302801D100227F1E41
:100D9000002A099784D01DE0112D07DAFFF70AFF1A
:100DA000303262556D1C50EA0102F5D1084302D081
:100DB0000098C8B10EE00021681E05E0235C625C6B
:100DC00063542254401E491C8142F7DBAB46A81BEA
:100DD000401E0990002004F80B000B98099AC0F8F7
:100DE0000880C0E9002B7AE711264FF0000857E78A
:100DF0002DE9F04F88460446D21D22F0070191B03C
:100E0000D1E90001CDE90A0104F068FC02460B9823
:100E1000C00F01D02D2007E02068810701D52B20CD
:100E200002E0202101EAC000032A099001D0072A2C
:100E300005DB03464146204600F096F90BE1207899
:100E4000800601D5E06900E00620B8F1650F814613
:100E500006D0B8F1660F18D0B8F1670F70D131E045
:100E60000020B9F1110F009001DB112301E009F11D
:100E700001030AAA01A90CA8FFF7E2FEDDE90C7044
:100E8000002609F10105834647E001204B4600900A
:100E90004FF000470AAA01A90CA8FFF7D1FEDDE92F
:100EA0000DB00C995D46002610B909F101000D182E
:100EB000B9EB050003D4C0F1FF3609F10105A5EB3C
:100EC00009002BE0B9F1010F01DA4FF00109002010
:100ED000B9F1110F0090484601DD112300E00346EF
:100EE0000AAA01A90CA8FFF7ABFEDDE90C704D467C
:100EF00000268346207800070AD4AB4500DA5D4619
:100F000001A8012D04DD411911F8011C302907D079
:100F10004F4502DA17F1040F04DA012082460FE090
:100F20006D1EEEE7002F02DCED1B3E4403E0781C53
:100F3000A84200DD7D1CB81B00F1010A4FF00047FC
:100F40002078000703D4AA4501DB4FF0FF3A0021C7
:100F5000B7F1004F0DF143088DF8431024D0022063
:100F60002B23002F01DA7F422D230A21021EA0F13C
:100F7000010000DC5FB197FBF1FC97FBF1F201FB94
:100F80001C7C17460CF1300C08F801CDEEE7A8F1F7
:100F9000010003702188090501D5452100E0652184
:100FA000A0F1010800F8011C09980FA9A1EB08079E
:100FB000FF1D00B10120411901EBEA70A16938441D
:100FC000081A401EA0612078C00602D42046FFF710
:100FD000A8FB099828B1D4E901219047206A401C58
:100FE00020622078C00622D52046FFF79AFB1EE03B
:100FF000002E04DBB34502DD01A8805D00E0302057
:10100000D4E901219047206A401C2062761CAAF195
:1010100001005FEA000A0AD100F0A2F8C068016886
:10102000405CD4E901219047206A401C2062281EC0
:10103000A5F10105DCDC07E0D4E9012118F8010B7A
:101040009047206A401C2062381EA7F10107F3DC9C
:101050002046FFF77CFB032011B041E610B5436941
:1010600013B1AFF3008001E0FFF794FB012010BD46
:10107000127800F124010A7000224A700122EDE783
:1010800011684FF0FF32E9E710B5436913B1AFF3D0
:10109000008001E0FFF744FC012010BD128800F140
:1010A000240182840022C2840122EDE711684FF0FE
:1010B000FF32E9E7007B00F08000704770B516460C
:1010C0000C46054600F044F8036893F80101012836
:1010D00006D0FF2C0FD8185D68B101202C7070BDB0
:1010E000D3F807013246214603F20713034428468A
:1010F000BDE8704018474FF0FF3070BD00487047A2
:10110000F01000207546FFF7F9FFAE46050069466E
:10111000534620F00700854618B020B5FFF704F9C4
:10112000BDE820404FF000064FF000074FF00008E8
:101130004FF0000B21F00701AC46ACE8C009ACE869
:10114000C009ACE8C009ACE8C0098D467047000092
:1011500010B500F005F8001D10BD00BFC95B000010
:1011600000487047101100202DE9F0411F46044649
:1011700003260168072A01F4006004DB08B116A504
:1011800005E016A503E008B115A500E015A521F0BE
:1011900010002060A069C01EA0610FB1401EA061B8
:1011A0002046FFF7BEFA4FB1D4E9012138469047F7
:1011B000206A401C2062C01C206206E0206AFAE718
:1011C000D4E9012115F8010B9047761EF8D220468C
:1011D000FFF7BDFABDE8F0814E414E006E616E0032
:1011E000494E4600696E66002DE9F0478146164675
:1011F0008AB0354878440DC88DE80D0032487844EF
:10120000801C03AC0DC884E80D0041F69B300844F7
:10121000372190FBF1F290FBF1F5A5F1800501FB80
:1012200012041B3C02D56442012000E00020DFF8DC
:1012300098A080460027FA44AAF1BE0A0EE0E00713
:101240000AD03246684607EB470101230AEB8101C9
:1012500000F017FB8DE8070064107F1C002CEED116
:10126000194F7F44AE3F19E0E80715D007EB041093
:101270000DF1180A90E80E008AE80E00C068F042EE
:1012800001D1981908903246012306A903A800F05D
:10129000F8FA03AB83E807006D10641C002DE3D15E
:1012A0004FF0010332466946B8F1000F03A802D09F
:1012B00000F0D2FA01E000F0E4FAC9E90001C9F84F
:1012C00008200AB0BDE8F0871489000010B5044674
:1012D000AFF300802046BDE81040FEF7F6BF0000E7
:1012E0004FF0013C50F8042B51F8043B9A4221D1B5
:1012F000A2EB0C03934313EACC1317D150F8042B41
:1013000051F8043B9A4215D1A2EB0C03934313EA24
:10131000CC130BD150F8042B51F8043B9A4209D15D
:10132000A2EB0C03934313EACC13DBD04FF0000085
:10133000704700BFD01A01BAB1FA81F101F018016B
:1013400022FA01F0CB40C1F12001DBB2C0B2C01AD9
:101350002CFA01F3D11A914311EAC311E6D1704777
:101360005FEA400C08BF91F0000F4FEA8C234FEA70
:10137000C12243EA51514FEA1C5018BF00F5F0401A
:101380004FEA300018BF41F000415FEA6C5C00F0AA
:101390002980BCF1FF3F08BF40F080407047130C2C
:1013A00006BF12044FF0100C4FF0000C130E04BFD8
:1013B00012020CF1080C130F04BF12010CF1040C03
:1013C000930F04BF92000CF1020CD30F04BF520024
:1013D0000CF1010C11464FF00002A0F11F00A0EB30
:1013E0000C00704711F0004F08BF704731F000410A
:1013F0003FF4D5AF0B0C06BF09044FF0100C4FF0B3
:10140000000C0B0E04BF09020CF1080C0B0F04BFFB
:1014100009010CF1040C8B0F04BF89000CF1020CC4
:10142000CB0F04BF49000CF1010CCCF12003A0EB61
:101430000C0022FA03F302FA0CF241EA030100F174
:101440000100704720F07F4C80EA030023F07F47C3
:10145000ACEB070303F57C5300F0004003F1FF03FE
:101460002DE980494FEA154B09B44FEA144325EAA8
:101470000B4E24EA03480FF2042606EB1327490813
:101480003E785FEA320203FB0667C7F5000707FBF9
:1014900006F64FEA54374FEAD64606F1020607FB36
:1014A000066CCCF1005C4FEA1C472CEA074C07FBAA
:1014B00006F40CFB06F504EB15464FEA961634BF0E
:1014C00000204FF000404FEAD13706FB07FC4FEAFF
:1014D0001C4C0CFB0BF7D21B03FB0CF761EB070159
:1014E0000CFB0EF7B0EB074072EB17420CFB08F752
:1014F00034BFA2EB0742B2EB074261EB17414FEA60
:101500000C444FEA910706FB07FC4FEA1C4C0CFB0E
:101510000BF7B0EBC74072EB573203FB0CF734BF4D
:10152000A2EBC742B2EBC74261EB57310CFB0EF79F
:10153000B0EBC70072EB57720CFB08F734BFA2EB9D
:10154000C702B2EBC70261EB5771039F4FEA81619B
:1015500041EA921104EBCC044FEAD1374FEA8262A0
:1015600006FB07FC42EA90124FEA80604FEA1C4CEF
:101570000CFB0BF7D21B03FB0CF761EB07010CFB19
:101580000EF7B0EB074072EB17420CFB08F734BFC5
:10159000A2EB0742B2EB074261EB17414FEA8C55D1
:1015A0004FEA910704EB9C2406FB07FC4FEA1C4C16
:1015B0000CFB0BF7B0EBC74072EB573203FB0CF799
:1015C00034BFA2EBC742B2EBC74261EB57310CFB11
:1015D0000EF7B0EBC70072EB57720CFB08F734BF85
:1015E000A2EBC702B2EBC70261EB577115EB4C25BA
:1015F0004FEA816141EA92114FEA82624FEAD137A4
:1016000042EA901206FB07FC44F100044FEA8060B6
:101610004FEA1C4C0CFB0BF7D21B03FB0CF761EBE6
:1016200007010CFB0EF7B0EB074072EB17420CFB07
:1016300008F734BFA2EB0742B2EB074261EB174158
:1016400015EB1C154FEA813141EA92414FEA823293
:1016500042EA90424FEA80304FEA0C7644F10004AF
:1016600048EA03434EEA0B484FF0000EB2EB080C79
:1016700071EB030724BF624639464EEB0E0E4FF066
:10168000000B0018524149414BEB0B0BB2EB080C1D
:1016900071EB03077BF1000B24BF624639464EEB2A
:1016A0000E0E4FF0000B0018524149414BEB0B0B53
:1016B000B2EB080C71EB03077BF1000B24BF624611
:1016C00039464EEB0E0E51EA020718BF46F00106EE
:1016D00016EB0E7655F1000254F1000103D5BDE87A
:1016E0008901BDE80088BDE88901BDE80048B61958
:1016F000524141EB0101A3F10103704780807F7EDD
:101700007D7C7B7A79787776767574737271717077
:101710006F6E6E6D6C6C6B6A6A6968686766666529
:101720006464636362616160605F5F5E5E5D5D5CB7
:101730005C5B5B5A5A595958585757565655555528
:101740005454535352525251515050504F4F4F4E88
:101750004E4D4D4D4C4C4C4B4B4B4A4A4A494949D6
:101760004848484747474746464645454544444418
:10177000444343434342424242414141002B9C4641
:1017800030D477002BD01CB54FEA370703B44FF0A5
:1017900010004FF01001BAF1000F06D0BCF1000F9D
:1017A000DCBF40F0080040F008014FF000000FBC23
:1017B000BDE810400BF1010BBBF1010F08BF5FEA60
:1017C000170722BF12F1010211F101014FF0004190
:1017D00043F1000300F0004043EA00007047F9D3F2
:1017E0005708D0E746EA064613F1400F4FEA16467F
:1017F0001FDD13F1200FDFBF16430A4600212033FF
:101800005B42BED0C3F1200746EA064602FA07F75C
:101810004FEA164646EA0706C3F1200722FA03F20A
:1018200001FA07F721FA03F14FF0000342EA070239
:10183000A7E746EA020646EA06464FEA164646EAA1
:101840000106BCBF46EA0646360C4FF000034FF0D7
:1018500000024FF0000194E72DE9804C9A46934630
:1018600070B491E8380007C831EA400C48BF34EA48
:10187000430C03D5FFF7E6FDFFF780FFF0BCBDE8A2
:10188000008C2DE9804C9A46934670B491E838005C
:1018900007C810F0804F08BF13F0804F03D100F04D
:1018A00005F8FFF76BFFF0BCBDE8008C20F07F4728
:1018B00080EA030023F07F4C07EB0C03A3F57C5375
:1018C00000F00040A3F1FE0392F0000F00F0B3809F
:1018D00095F0000F00F077802DE901494FEA1140A3
:1018E0004FEA144621EA004800FB06FC24EA0647BA
:1018F00008FB06F607FB08F800FB07F718EB06489D
:101900004CEB164C4FEA124B18EB07484FEA1546C2
:101910004CEB174022EA0B4E0BFB06FC25EA064770
:101920000EFB06F607FB0EFE0BFB07F71EEB064E43
:101930004CEB164C4FF000061EEB074E4CEB174BD2
:1019400018EB0B0840F1000018EB0E0B58EB0008E9
:1019500040F100008F1A4FF000013CBFC943661BE5
:1019600014BFB5EB040C00213CBFC943F61B4FEA82
:1019700017444EEA8E0E27EA04454FEA1C4704FB43
:1019800007622CEA074C05FB07F70CFB05F604FB86
:101990000CFC16EB074642EB174216EB0C4642EBEB
:1019A0001C421BEB060658EB0202414146EA9E062A
:1019B00001D5BDE80189B619524141EB0101A3F1FE
:1019C0000103BDE801894FEA14454FEA114724EAB3
:1019D000054621EA074C05FB07F406FB07F70CFB5D
:1019E00006F105FB0CFC11EB074144EB17444FEAF1
:1019F000124711EB0C4144EB1C4422EA074C05FB57
:101A000007F206FB07F70CFB06F605FB0CFC16EBD2
:101A1000074642EB174216EB0C4642EB1C456A1890
:101A200054F1000148BF7047B619524141EB010122
:101A3000A3F10103704795F0000F37D04FEA114230
:101A40004FEA144721EA024624EA074C02FB07F159
:101A500006FB07F70CFB06F402FB0CFC14EB074437
:101A600041EB17414FEA154714EB0C4441EB1C4185
:101A700025EA074C02FB07F506FB07F70CFB06F609
:101A800002FB0CFC16EB074645EB174516EB0C4624
:101A900045EB1C42121951F1000148BF7047B619BD
:101AA000524141EB0101A3F1010370474FEA144594
:101AB0004FEA114724EA054621EA074C05FB07F1E6
:101AC00006FB07F70CFB06F24FF0000605FB0CFCCB
:101AD00012EB074241EB174112EB0C4251EB1C4158
:101AE00048BF7047921841EB0101A3F10103704711
:101AF00070B506460024002508E000F0A1FD204452
:101B000084B2052004F040FD681CC5B2062DF4DB4C
:101B1000062094FBF0F084B2204670BD21B18268AB
:101B200042F00102826003E0826822F001028260DA
:101B3000704700000021084A1168084A1140D0E9A6
:101B400000231A4383681A43C3681A431143044AA3
:101B5000C2F804137047000004230140E030FCFF8A
:101B6000002001400146C86C80B270470246002048
:101B700013680B400BB1012000E00020704700000B
:101B800030B50246002000235068104C20400D79EB
:101B90000C6844EA05242043506090680C4C2040B7
:101BA000D1E903542C438D682C434D7944EA450414
:101BB00020439060D06A20F470000C7D641EE4B273
:101BC000234340EA0350D06230BD0000FFFEFFFC1B
:101BD000FDF7FFC0F0B504460D4600200021092D99
:101BE00011DDE068A5F10A0606EB4607072606FAAE
:101BF00007F18843A5F10A0606EB460603FA06F14B
:101C00000843E0600CE0206905EB4507072606FA6B
:101C100007F1884305EB450603FA06F10843206106
:101C2000072A0FDA606B561E06EB86071F2606FA98
:101C300007F18843561E06EB860605FA06F10843AF
:101C4000606322E00D2A0FDA206BD61F06EB8607B1
:101C50001F2606FA07F18843D61F06EB860605FA0B
:101C600006F10843206310E0E06AA2F10D0606EBDE
:101C700086071F2606FA07F18843A2F10D0606EB38
:101C8000860605FA06F10843E062F0BD816841F07E
:101C900080418160704700001CB50121202001F0C7
:101CA000A3FC0820009001208DF8040000208DF88E
:101CB000060003208DF8050002208DF80700694614
:101CC000034800F0CDFB0821014800F034FC1CBDA6
:101CD0000010024000BFFEE708B50146C1F1FF0158
:101CE000552916DA01EB4100C0F1FF00C0B28DF8B2
:101CF000000000208DF8010001EB4100C0B28DF81A
:101D00000200BDF8002010469DF8022040EA024083
:101D100008BDAA2919DAA1F15500C1B200208DF839
:101D2000000001EB4100C0B28DF8010001EB410061
:101D3000C0F1FF00C0B28DF80200BDF800201046CF
:101D40009DF8022040EA0240E2E7A1F1AA00C1B2F8
:101D500001EB4100C0B28DF8000001EB4100C0F181
:101D6000FF00C0B28DF8010000208DF80200BDF820
:101D7000002010469DF8022040EA0240C8E700001B
:101D80001CB50121082001F02FFC4CF2030000904B
:101D900001208DF8040000208DF8060003208DF846
:101DA000050001208DF807006946044800F058FB43
:101DB0004CF20301014800F0BEFB1CBD000C0240C8
:101DC00010B50446ECB920480078D0B101201F4975
:101DD000086000201E49C1F884021C49383108609F
:101DE00001201B49C1F8BC024FF4C87004F0CCFBC1
:101DF00000201649086015493C31086012490870F6
:101E000021E0012C1FD11048007801281BD00020B0
:101E10000E49086001200E49C1F884020B4938318F
:101E2000086000200A49C1F8BC024FF4C87004F0F1
:101E3000ABFB00200549091D0860044938310860E2
:101E400001200149087010BD20000020808241421D
:101E50000080414210B500241448006820F0300092
:101E60001249086008460068086004E0601CC4B2BB
:101E7000012004F0A5FB0E48006808B1642CF5DBD6
:101E8000642C01DB012010BD002404E0601CC4B2FE
:101E9000012004F095FB0648006808B9642CF5DBC6
:101EA000642C01DB0120EEE70020ECE7001002408B
:101EB000080242421CB50121102001F095FB0420CC
:101EC000009001208DF8040000208DF8060003200A
:101ED0008DF8050001208DF807006946034800F0E1
:101EE000BFFA00F067F8FFF7B5FF1CBD0010024015
:101EF00010B5002404E0601CC4B2012004F060FBB3
:101F00000D48006808B1642CF5DB002404E0601C77
:101F1000C4B2012004F054FB0748006808B9642CDF
:101F2000F5DB282004F04CFB0348006808B10120D1
:101F300010BD0020FCE700000802424270B50024FA
:101F4000002506E06006040EFFF7D2FF0443681C7C
:101F5000C5B2082DF6DB204670BD7CB505460E46A1
:101F600000F028F8FFF776FFF8B9002405E0FFF746
:101F7000E5FF0DF80400601CC4B2052CF7DB9DF8EA
:101F800000009DF8011008449DF8021008449DF8D7
:101F9000031008449DF80410884208D19DF8000001
:101FA00030709DF80200287001E001207CBD002007
:101FB000FCE7000010B50C48006820F030000A492A
:101FC00008600846006840F01000086000200749DB
:101FD0000860142004F0D8FA01200549C1F88802ED
:101FE0001E2004F0EDFA10BD0010024088024242AB
:101FF000000042420246094B9A4201D2084801E0E1
:102000000648103801F000531BB1064B0B40C3606B
:1020100002E0044B0B4083607047000010640240F4
:10202000006002407D0F7D0F21B1026842F0010285
:10203000026003E0026822F00102026070470000C3
:10204000016821F0010101600021016041608160AF
:10205000C1600161212141614A49884204D13D2189
:10206000484A103A91608CE046491831884205D1BF
:102070004FF47461434A103A916082E04149303133
:10208000884205D14FF474113E4A103A916078E0CD
:102090003C494831884205D14FF07461394A103AC1
:1020A00091606EE037496031884204D13649354A43
:1020B000103AD16065E033497831884204D1334920
:1020C000304A103AD1605CE02E499031884204D108
:1020D0002F492C4A103AD16053E02A49A83188424E
:1020E00005D14FF03D51274A103AD16049E02949C6
:1020F000884204D13D21274A083A116041E0254930
:102100001831884205D14FF47461224A083A1160AF
:1021100037E020493031884205D14FF474111D4A0F
:10212000083A11602DE01B494831884205D14FF033
:102130007461184A083A116023E0164960318842F8
:1021400004D11149134A121F11601AE01149783164
:10215000884204D10D490F4A121F116011E00D4948
:102160009031884204D10A490A4A121F116008E0DE
:102170000849A831884204D14FF03D51054A121F49
:1021800011607047106002403D000020400F0020A9
:1021900000003D2010640240014600200A6802F061
:1021A00001020AB1012000E00020704730B503466B
:1021B0000A46002000240B4DAB4201D20A4901E03F
:1021C0000849103902F000550DB14C6800E00C6868
:1021D000064D2C4004EA02050DB1012000E000206C
:1021E00030BD000010640240006002407D0F7D0F92
:1021F00010B500220268134B1A40CC680B682343C9
:102200004C6923438C692343CC6923430C6A2343E1
:102210004C6A23438C6A23434C6B23438C6B2343CC
:102220001A430260426922F00702D1E90B342343CA
:102230001A4342610B6943604B6883608B68C360DB
:1022400010BD00003F801CF04160704770470000E7
:1022500008B50120102336A200210090084600F0A6
:10226000EFFC0120102337A219460090002000F057
:10227000E7FC37A0FEF77EF84FF4FA6004F084F92B
:1022800036A0FEF777F8642004F07EF935A0FEF75B
:1022900071F84FF47A7004F077F936A0FEF76AF817
:1022A00040F6B83004F070F93AA0FEF763F84FF446
:1022B000FA6004F069F94148FEF75CF84FF4FA60FF
:1022C00004F062F93E48FEF755F84FF4FA6004F066
:1022D0005BF9012010233BA200210090084600F08A
:1022E000AFFC01203C490860642004F04DF9002057
:1022F0003A49C1F88C02642004F046F901203649BD
:1023000008604FF4967004F03FF900203349C1F89B
:102310008C024FF4FA7004F037F900F05DFA0120F6
:1023200010232FA230210090084600F089FC08BD40
:1023300057616974696E6720666F722065737038C3
:102340000000000032363620496E6974000000003B
:1023500041542B5253540D0A0000000041544530A3
:102360000D0A000041542B43574D4F44453D310D5C
:102370000A00000041542B43574A41503D224B353F
:1023800030222C226C686A7A6463686868220D0ABD
:102390000000000041542B434950534E54504346D3
:1023A000473D312C382C226E7470312E616C697966
:1023B000756E2E636F6D220D0A000000249B0008CD
:1023C000249E0008455350383236362046696E69DF
:1023D00073686564210000008C02424200004242A2
:1023E00042652072756E6E696E6700001CB5012132
:1023F000082001F0F9F83020009001208DF8040049
:1024000000208DF8060003208DF8050001208DF8CE
:1024100007006946044800F023F8002003490860DB
:102420000349C1F894021CBD000C02409082414255
:102430000080414230B90021074A1160074AC2F8C2
:10244000941208E0012806D10121034A11600021FD
:10245000024AC2F894127047908241420080414281
:10246000F0B50A4600210023002400BF3DE001250D
:1024700005FA01F3156805EA03049C4234D10568A6
:102480004F000326BE40B543056015794E00B540A8
:102490000668354305601579012D02D01579022DA6
:1024A00016D185684F000326BE40B5438560557937
:1024B0004E00B540866835438560456801268E40EC
:1024C000B5434560456896798E40B6B23543456060
:1024D000C5684F000326BE40B543C560D5794E00A0
:1024E000B540C6683543C560491C1029BFD3F0BD4F
:1024F000F0B5002300244D07ED0E02FA05F3CE10CF
:1025000000F1200555F826504E07F70E0F26BE4065
:10251000B543CF1000F1200646F82750CE1000F149
:10252000200555F8265045EA0304CE1000F1200599
:1025300045F82640F0BD4183704701837047000095
:1025400010B501F037FE084880ED000A01F032FEB8
:10255000DFED060AB4EEE00AF1EE10FA01DB01202D
:1025600010BD0020FCE700001C00002000007042AD
:1025700000BFFEE710B580210A48FFF7DEFF4021CB
:102580000848FFF7DAFF00F037F880210548FFF729
:10259000D2FF00F031F840210248FFF7CCFF00F0F5
:1025A0002BF810BD000C024010B580210648FFF743
:1025B000C2FF40210448FFF7C0FF00F01DF8802152
:1025C0000148FFF7BAFF10BD000C024010B5802192
:1025D0000848FFF7B2FF00F00FF840210548FFF769
:1025E000ACFF00F009F840210248FFF7A4FF00F01B
:1025F00003F810BD000C02400A2000BF011EA0F12C
:102600000102D0B2FAD170471CB50121102000F0B0
:10261000EBFF4FF4C070009001208DF80400002003
:102620008DF8060003208DF8050002208DF80700C4
:1026300069460248FFF714FF1CBD0000001002406D
:1026400010B50748FFF722FB00BF02210448FFF73F
:102650008DFA0028F9D00248FFF784FA10BD000077
:102660000020014000B58DB00121084600F0BCFFFC
:102670000121080200F0E8FF10200B9003208DF8E4
:10268000300000208DF833000BA91448FFF7E8FE56
:1026900000200790089009900A9007A8FFF74AFACF
:1026A000002001908DF8080001208DF8090000201D
:1026B0000390059001208DF8180001A90848FFF744
:1026C0005FFA0023012204210548FFF783FA012164
:1026D0000348FFF723FA0DB000BD000000000240E0
:1026E0000020014000BFFEE710B5044624B90F21C9
:1026F000044801F0E3FF03E00521024801F0DEFF9A
:1027000010BD00000004004010B5044624B90F219C
:10271000044801F0D5FF03E01921024801F0D0FF81
:1027200010BD00000004004010B5044624B90F217C
:10273000044801F0C7FF03E01921024801F0C2FF7D
:1027400010BD0000000400407047000070B500217B
:1027500000230F22C4781CB3174C246804F4E064EF
:10276000C4F5E064C4F30721C1F10404E3B20A41F3
:1027700044789C40E1B28478144021430C07210E38
:102780000E4C05786155047804F01F050124AC4017
:1027900005786D11AD0005F1E025C5F8004109E0AF
:1027A000047804F01F050124AC40054D067876112D
:1027B00045F8264070BD00000CED00E000E400E0AC
:1027C00080E100E002490143024A116070470000C5
:1027D0000000FA050CED00E070B500240CE00025C7
:1027E00006E00020074901EBC5010855681CC5B289
:1027F000802DF6DB601CC4B2082CF0DB00F0CCF8B6
:1028000070BD0000C40A0020F0B514460B46CF1777
:1028100001EB5777C7F3C702CF1701EB5777FF10CC
:10282000A1EBC707FEB20123B340DDB24CB1134B9D
:1028300003EBC0039B5C2B43104F07EBC007BB545B
:102840001AE00E4B03EBC0039B5CDB430B4F07EB23
:10285000C007BB54094B03EBC0039B5C2B43074FE2
:1028600007EBC007BB54054B03EBC0039B5CDB438A
:10287000024F07EBC007BB54F0BD0000C40A0020A4
:102880001CB50121082000F0AFFEC02000900120FF
:102890008DF804008DF8060003208DF80500012056
:1028A0008DF8070069463B48FFF7DAFD0021AE20AE
:1028B00000F0EDF90021084600F0E9F900211020B0
:1028C00000F0E5F90021402000F0E1F9002181202D
:1028D00000F0DDF90021CF2000F0D9F90021A1207E
:1028E00000F0D5F90021C82000F0D1F90021A62080
:1028F00000F0CDF90021A82000F0C9F900213F2007
:1029000000F0C5F90021D32000F0C1F900210846EC
:1029100000F0BDF90021D52000F0B9F90021802098
:1029200000F0B5F90021D92000F0B1F90021F12023
:1029300000F0ADF90021DA2000F0A9F90021122001
:1029400000F0A5F90021DB2000F0A1F900214020D2
:1029500000F09DF90021202000F099F900210220CB
:1029600000F095F900218D2000F091F9002114204C
:1029700000F08DF90021A42000F089F90021A620A3
:1029800000F085F9FFF728FF0021AF2000F07FF964
:102990001CBD0000000C024070B500242BE004F1C7
:1029A000B001C8B2002100F072F90021022000F04D
:1029B0006EF90021102000F06AF9FFF7DBFD7820A6
:1029C00001F05CFBFFF702FE402001F057FBFFF730
:1029D000FDFD002509E0094901EBC501085D01F095
:1029E0004DFBFFF7F3FD681CC5B2802DF3DBFFF74D
:1029F000DBFD601CC4B2082CD1DB70BDC40A002012
:102A00002DE9FE4F0746884692461C460197CDF8B1
:102A10000080082C02D14FF006091FE02046E31782
:102A200004EB5373DB1021464FEAE47C04EB5C7C3F
:102A30004FEAEC0CA4EBCC0CBCF1000F02D04FF031
:102A4000010C01E04FF0000C6344224604EBD27C01
:102A50004FEA6C0C03FB0CF303F0FF09AAF1200012
:102A6000C6B200255EE0082C07D106EB46002F49D0
:102A700001EB400010F805B01DE00C2C07D106EB6F
:102A800046002B4901EB800010F805B013E0102C34
:102A900005D1284800EB061010F805B00BE0182C03
:102AA00007D106EBC600244901EB800010F805B001
:102AB00001E0BDE8FE8F002002901CE00BF0010059
:102AC00028B1414638460C9AFFF79EFE09E00C9863
:102AD00008B9012000E00020024641463846FFF7D1
:102AE00093FE4FEA6B0B08F1010000F0FF0802981B
:102AF000401CC0B2029002980828DFDB781CC7B2E5
:102B0000082C0BD004EBD4714A100199791A8A422F
:102B100004D1019F00980830C0B20090DDF8008019
:102B2000681CC5B24D459EDB00BFC2E7C97A0008EC
:102B3000F17C000865810008558700082DE9FC4FED
:102B40000746884616461C46BB46CDF804802046FC
:102B5000E21704EB5272D2102146E31704EB5373D1
:102B6000DB10A4EBC3030BB1012300E000231A44E4
:102B7000624392B20092002555E0102C05D12C48FA
:102B800000EB461010F805A01BE0182C07D106EB4F
:102B9000C600284901EBC00010F805A011E0202C68
:102BA00005D1254800EBC61010F805A009E0402C1F
:102BB00005D1224800EB462010F805A001E0BDE851
:102BC000FC8F4FF000091CE00AF0010028B14146DB
:102BD00038460B9AFFF718FE09E00B9808B9012058
:102BE00000E00020024641463846FFF70DFE4FEA5E
:102BF0006A0A08F1010000F0FF0809F1010000F085
:102C0000FF09B9F1080FDFDB781CC7B2A7EB0B0097
:102C1000A04204D15F4601980830C0B20190DDF8AF
:102C20000480681C85B200988542A6DB00BFC6E719
:102C3000B1940008F196000839970008B997000888
:102C40002DE9F84306460F4614461D46DDF8208060
:102C500013E0CDF8008022782B4639463046FFF746
:102C6000CFFE082D02D1B01DC6B205E0284605EB07
:102C7000D07106EB6101CEB2641C2078202802DB03
:102C800020787E28E5DDFFF787FEBDE8F88370B584
:102C900005460C46FFF76EFC782001F0EFF9FFF7D0
:102CA00095FC1CB1402001F0E9F902E0002001F0A0
:102CB000E5F9FFF78BFC284601F0E0F9FFF786FC09
:102CC000FFF772FC70BD704738B5F948008800F412
:102CD0000040002870D00C22F6A1FA48FDF7A5FCB0
:102CE00000286AD1F8A1F748FDF76EFC00287DD0D6
:102CF000F8A1F448FDF768FC0446A07930283BD1E0
:102D00000020F64908806C2000F0A4FFF4A003F036
:102D1000CDFE0020F44908800120F4490860F44900
:102D2000C1F89C021023F3A2194600900020FFF77F
:102D300087FF012010230022114600901046FFF764
:102D4000FDFE012010230246002100901846FFF7E7
:102D5000F5FE012010230222002100902020FFF721
:102D6000EDFE012010230322002100903020FFF708
:102D7000E5FEFFF711FE35E1A079312866D101208B
:102D8000D6490880D8480088072823D2DFE800F019
:102D900004080C10161A1E006C2000F073FF19E0D6
:102DA0006C2000F091FE15E06C2000F07FFD11E03A
:102DB0006C2000F00DFD0DE081E317E26C2000F0C7
:102DC000D3FF07E06C2000F00FFE03E06C2000F062
:102DD000E9FE00BF00BFCBA003F068FE0020FFF7B4
:102DE00029FB0020C9490870C04900E0FBE00860E9
:102DF0000120BF49C1F89C021023C5A219460090CA
:102E00000020FFF71DFF012010230C22002100905D
:102E10000846FFF793FE012010230D2200210090A9
:102E20001846FFF78BFE012010230222002100909C
:102E30002020FFF783FE01201023032200210090B1
:102E40003020FFF77BFEFFF7A7FDCBE0A07932280B
:102E500036D10220A14908806C2000F085FFB1A086
:102E600003F024FE0420A049088001201023AFA213
:102E7000194600900020FFF7E3FE012010230E22E8
:102E8000002100900846FFF759FE012010230F2271
:102E9000002100901846FFF751FE01201023022266
:102EA000002100902020FFF749FE0120102303227B
:102EB000002100903020FFF741FEFFF76DFD91E00B
:102EC000A07933283CD10320844908809DA003F0D9
:102ED000EDFD082084490880012010239BA219469B
:102EE00000900020FFF7ACFE012010230A220021F1
:102EF00000900846FFF722FE012010230B2200213C
:102F000000901846FFF71AFE01201023022200212C
:102F100000902020FFF712FE012010230322002141
:102F200000903020FFF70AFEFFF736FD6C2003F01B
:102F30009EFC01206D4908606D49C1F89C0251E07A
:102F4000A07934284ED10420644908806C2000F018
:102F50000FFC83A003F0AAFD07206349088001202D
:102F6000FFF7C2FB0120FFF7CFFB0120FFF7DCFBDF
:102F70000020FEF725FF00207A490870FFF75AFA73
:102F80000020624908705949086001205849C1F879
:102F90009C02102374A2194600900020FFF750FEF7
:102FA000012010231A46002100900846FFF7C6FDB5
:102FB000012010231122002100901846FFF7BEFDCA
:102FC000012010230222002100902020FFF7B6FDEF
:102FD000012010230322002100903020FFF7AEFDD6
:102FE000FFF7DAFC64E266A13648FDF7EDFAE8B1D6
:102FF0003E48006808B9012000E000203B49086015
:103000003B48D0F8A00240B9012010235DA2194628
:1030100000900020FFF714FE4AE2012010235DA279
:10302000194600900020FFF70BFE41E25DA1254804
:10303000FDF7CAFAF8B12D48001F006808B9012051
:1030400000E000202949091F08602948D0F89C02A7
:1030500040B90120102354A2194600900020FFF728
:10306000EFFD25E20120102353A219460090002015
:10307000FFF7E6FD1CE254A11248FDF7A5FAA8B13E
:103080002248007880F00100204908700846007846
:10309000FFF7D0F91D480078012808D110234BA272
:1030A000194600900020FFF7CBFD01E29FE095E07C
:1030B0002C0000202B4D5154545355425245435639
:1030C00000000000440F0020506F7765724D6F6460
:1030D000650000004D6F64650000000004000020E2
:1030E000627A6D73000000000E000020A0024242D0
:1030F000000042425374616E64617264204D6F64DB
:10310000650000006A6E6D73000000000C00002076
:1031100045434F204D6F6465202020202020202033
:103120000000000079646D73000000005265616466
:10313000696E67204D6F64652020202020202020AC
:103140000000000066776D7300000000417470207D
:103150004D6F6465202020202020202000000000EA
:10316000777A6C000B00002041776179204D6F6405
:10317000652020202020202020202020000000008A
:103180004B5400004143206F666620202020202001
:10319000000000004143206F6E20202020202020CE
:1031A00000000000425800006672696765206F6683
:1031B00066202020202000006672696765206F6EFF
:1031C000202020200000000046414E0066616E2055
:1031D0006F6E2020202020202000000001201023DE
:1031E000B7A2194600900020FFF72AFD60E1B8A1C0
:1031F000B948FDF7E9F9F0B1B848007880F001006E
:10320000B649087008460078FFF76EFAB3480078B0
:10321000012807D11023B2A2194600900020FFF721
:103220000FFD45E101201023B1A2194600900020B6
:10323000FFF706FD3CE1B2A1A748FDF7C5F9F0B1E3
:10324000B148007880F00100AF4908700846007866
:10325000FFF75AFAAC480078012807D11023ABA237
:10326000194600900020FFF7EBFC21E1012010231C
:10327000A9A2194600900020FFF7E2FC18E1A9A1DD
:103280009548FDF7A1F9F0B1A848007880F0010059
:10329000A649087008460078FFF746FAA348007868
:1032A000012807D11023A2A2194600900020FFF7A1
:1032B000C7FCFDE001201023A1A2194600900020C8
:1032C000FFF7BEFCF4E0A2A18348FDF77DF9F0B161
:1032D000A148007880F001009F49087008460078F6
:1032E000FEF76EFD9C480078012807D110239BA2B1
:1032F000194600900020FFF7A3FCD9E0012010231D
:103300009AA2194600900020FFF79AFCD0E09BA1FA
:103310007148FDF759F900288CD098A16E48FDF747
:1033200053F90446A07930280ED16C2000F092FCAD
:103330000020944908800120102393A200210090CE
:103340004620FFF77DFCB2E0A079312810D1E0796A
:103350007D280DD16C2000F09FFB01208949088059
:1033600010238BA2002100904620FFF769FC9EE00D
:10337000A07932280ED16C2000F080FA0220814919
:1033800008800120102384A2002100904620FFF72E
:1033900057FC8CE0A07933280ED16C2000F000FAA5
:1033A000032078490880012010237EA2002100908C
:1033B0004620FFF745FC7AE0A07934280ED16C2036
:1033C00000F0BAFC04206F4908800120102377A286
:1033D000002100904620FFF733FC68E0A0793528F3
:1033E0000ED16C2000F0E8FA052066490880012023
:1033F000102370A2002100904620FFF721FC56E028
:10340000A07936280ED16C2000F0B4FB06205D496F
:1034100008800120102369A2002100904620FFF7B8
:103420000FFC44E0A07937280ED16C2000F0A0F901
:103430000720544908800120102362A20021009037
:103440004620FFF7FDFB32E0A07938280ED101209D
:1034500010235EA2002100904620FFF7F1FB6C20B4
:1034600003F005FA08204749088020E0A0793928B0
:103470000DD10120102357A2002100904620FFF714
:10348000DFFB03F019FC09203E4908800FE0E079DA
:1034900030280CD10120102350A20021009046209A
:1034A000FFF7CEFB03F0B4F90A203649088000BFCD
:1034B000C8210948FDF704F900204A49088038BDB1
:1034C00066616E206F6666202020202020000000AC
:1034D000446F6F7200000000440F002008000020BD
:1034E000446F6F72206F6E2020202020200000008B
:1034F000446F6F72206F666620202020200000003D
:10350000426564726F6F6D0009000020426564724D
:103510006F6F6D206F6E0000426564726F6F6D207B
:103520006F66660047756573740000000A0000202E
:103530004775657374206F6E2020202020000000E6
:103540004775657374206F66662020202000000098
:103550004375727461696E000B00002043757274CC
:1035600061696E206F6E2020200000004375727428
:1035700061696E206F6666202000000054797065D6
:10358000000000000E00002057484954452020004C
:103590005245442020202000475245454E202020FF
:1035A0000000000042554C452020200059454C4C5D
:1035B0004F572000505552504C452000534B592036
:1035C00020202000424C41434B2020005241494ED4
:1035D000424F5700484F5253452020004252454128
:1035E000544845002C00002029B1064A12680243C5
:1035F000044B1A6004E0034A12688243014B1A60CC
:10360000704700003038024029B1064A1268024370
:10361000044B1A6004E0034A12688243014B1A60AB
:10362000704700004038024029B1064A1268024340
:10363000044B1A6004E0034A12688243014B1A608B
:10364000704700002038024029B1064A1268024340
:10365000044B1A6004E0034A12688243014B1A606B
:10366000704700004438024029B1064A12680243FC
:10367000044B1A6004E0034A12688243014B1A604B
:103680007047000024380240F0B5002100220024D9
:10369000022500260223324F3F6807F00C0121B1BA
:1036A000042905D0082937D105E02E4F076036E000
:1036B0002D4F076033E02A4F3F1F3F68C7F3805606
:1036C000274F3F1F3F6807F03F036EB1264FB7FB00
:1036D000F3F7DFF88CC0ACF1040CDCF800C0CCF3DD
:1036E000881C07FB0CF40CE01E4FB7FBF3F7DFF868
:1036F00070C0ACF1040CDCF800C0CCF3881C07FBF4
:103700000CF4174F3F1F3F68C7F301477F1C7D0034
:10371000B4FBF5F7076002E0124F076000BF00BF7F
:103720000F4F3F6807F0F0010909104F7A5C0768F6
:10373000D74047600A4F3F6807F4E051890A0B4FB2
:103740007A5C4768D7408760054F3F6807F460415F
:10375000490B064F7A5C4768D740C760F0BD000050
:10376000083802400024F40000127A002E000020E5
:1037700038B5054600240CE008480188ADF8001073
:1037800080788DF802002046009903F0DDF8601C77
:1037900084B2AC42F0DB03F0ADF838BDC07A00086B
:1037A00038B5054600240CE008480188ADF8001043
:1037B00080788DF802002046009903F0C5F8601C5F
:1037C00084B2AC42F0DB03F095F838BDB47A00085F
:1037D00038B5054600240CE008480188ADF8001013
:1037E00080788DF802002046009903F0ADF8601C47
:1037F00084B2AC42F0DB03F07DF838BD9F7A00085C
:10380000F8B50646002400BF15E01B498C70002562
:1038100008E01948006801460090284603F094F833
:10382000681C85B2B542F4DB03F064F8032002F0B3
:10383000ABFE601C84B2FF2CE7DDFF2415E00E49CF
:103840008C70002508E00C4800680146009028466E
:1038500003F07AF8681C85B2B542F4DB03F04AF84D
:10386000032002F091FE601E84B2002CE7DC6C2085
:10387000FFF77EFFF8BD00001800002038B50546B0
:1038800000240CE008480188ADF8001080788DF81D
:1038900002002046009903F057F8601C84B2AC4245
:1038A000F0DB03F027F838BDB17A000838B50546DB
:1038B00000240CE008480188ADF8001080788DF8ED
:1038C00002002046009903F03FF8601C84B2AC422D
:1038D000F0DB03F00FF838BD9C7A0008F8B5064617
:1038E000002400BF15E01B494C70002508E0194872
:1038F000006801460090284603F026F8681C85B24F
:10390000B542F4DB02F0F6FF032002F03DFE601C3E
:1039100084B2FF2CE7DDFF2415E00E494C70002532
:1039200008E00C48006801460090284603F00CF8B7
:10393000681C85B2B542F4DB02F0DCFF032002F024
:1039400023FE601E84B2002CE7DC6C20FFF710FF22
:10395000F8BD00001800002038B5054600240CE032
:1039600008480188ADF8001080788DF802002046E4
:10397000009902F0E9FF601C84B2AC42F0DB02F077
:10398000B9FF38BDC67A000838B5054600240CE0FA
:1039900008480188ADF8001080788DF802002046B4
:1039A000009902F0D1FF601C84B2AC42F0DB02F05F
:1039B000A1FF38BDC37A000838B5054600240CE0E5
:1039C00008480188ADF8001080788DF80200204684
:1039D000009902F0B9FF601C84B2AC42F0DB02F047
:1039E00089FF38BDBA7A000838B5054600240CE0D6
:1039F00008480188ADF8001080788DF80200204654
:103A0000009902F0A1FF601C84B2AC42F0DB02F02E
:103A100071FF38BDA57A0008F8B50646002400BF3E
:103A200016E01C490C708C70002508E019480068ED
:103A300001460090284602F087FF681C85B2B54217
:103A4000F4DB02F057FF032002F09EFD601C84B2FD
:103A5000FF2CE6DDFF2416E00E490C708C7000256B
:103A600008E00C48006801460090284602F06CFF10
:103A7000681C85B2B542F4DB02F03CFF032002F083
:103A800083FD601E84B2002CE6DC6C20FFF770FE24
:103A9000F8BD00001800002038B5054600240CE0F1
:103AA00008480188ADF8001080788DF802002046A3
:103AB000009902F049FF601C84B2AC42F0DB02F0D6
:103AC00019FF38BDAE7A000838B5054600240CE071
:103AD00008480188ADF8001080788DF80200204673
:103AE000009902F031FF601C84B2AC42F0DB02F0BE
:103AF00001FF38BD997A0008F8B50646002400BFDA
:103B000015E01B490C70002508E0194800680146C3
:103B10000090284602F018FF681C85B2B542F4DB1D
:103B200002F0E8FE032002F02FFD601C84B2FF2C9F
:103B3000E7DDFF2415E00E490C70002508E00C4875
:103B4000006801460090284602F0FEFE681C85B21F
:103B5000B542F4DB02F0CEFE032002F015FD601E3C
:103B600084B2002CE7DC6C20FFF702FEF8BD0000F9
:103B70001800002038B5054600240CE008480188EC
:103B8000ADF8001080788DF802002046009902F010
:103B9000DBFE601C84B2AC42F0DB02F0ABFE38BD51
:103BA000BD7A000838B5054600240CE008480188B5
:103BB000ADF8001080788DF802002046009902F0E0
:103BC000C3FE601C84B2AC42F0DB02F093FE38BD51
:103BD000A87A0008F8B50646002400BF16E01C4984
:103BE0004C708C70002508E0194800680146009070
:103BF000284602F0A9FE681C85B2B542F4DB02F04B
:103C000079FE032002F0C0FC601C84B2FF2CE6DDCC
:103C1000FF2416E00E494C708C70002508E00C481B
:103C2000006801460090284602F08EFE681C85B2AE
:103C3000B542F4DB02F05EFE032002F0A5FC601E3C
:103C400084B2002CE6DC6C20FFF792FDF8BD00008A
:103C50001800002038B5054600240CE0084801880B
:103C6000ADF8001080788DF802002046009902F02F
:103C70006BFE601C84B2AC42F0DB02F03BFE38BD50
:103C8000AB7A000838B5054600240CE008480188E6
:103C9000ADF8001080788DF802002046009902F0FF
:103CA00053FE601C84B2AC42F0DB02F023FE38BD50
:103CB000967A0008F8B50646002400BF17E01D49B3
:103CC0000C704C708C70002508E01A4800680146A2
:103CD0000090284602F038FE681C85B2B542F4DB3D
:103CE00002F008FE032002F04FFC601C84B2FF2C9F
:103CF000E5DDFF2417E00F490C704C708C70002537
:103D000008E00C48006801460090284602F01CFEBE
:103D1000681C85B2B542F4DB02F0ECFD032002F032
:103D200033FC601E84B2002CE5DC6C20FFF720FD24
:103D3000F8BD00001800002038B5054600240CE04E
:103D400008480188ADF8001080788DF80200204600
:103D5000009902F0F9FD601C84B2AC42F0DB02F085
:103D6000C9FD38BDB77A000838B5054600240CE017
:103D700008480188ADF8001080788DF802002046D0
:103D8000009902F0E1FD601C84B2AC42F0DB02F06D
:103D9000B1FD38BDA27A0008F8B50646002400BF80
:103DA00016E01C490C704C70002508E019480068AA
:103DB00001460090284602F0C7FD681C85B2B54256
:103DC000F4DB02F097FD032002F0DEFB601C84B2FE
:103DD000FF2CE6DDFF2416E00E490C704C70002528
:103DE00008E00C48006801460090284602F0ACFD4F
:103DF000681C85B2B542F4DB02F07CFD032002F0C2
:103E0000C3FB601E84B2002CE6DC6C20FFF7B0FC24
:103E1000F8BD000018000020F8B50546002411E0A8
:103E2000FCF75AFAFF2190FBF1F201FB1200C6B237
:103E30003046FDF751FF01460090204602F084FD18
:103E4000601C84B2AC42EBDB02F054FDF8BD000014
:103E500010B5044607E00B49098888B2FFF7DCFF7C
:103E60000A2002F091FB074801680068401C054ADF
:103E700010606C29EFDD6C20FFF77AFC002001490F
:103E8000086010BD1400002021B1028842F04002F9
:103E9000028004E002884FF6BF731A400280704728
:103EA0001AB183880B43838002E083888B4383802D
:103EB000704710B50022028802F441520B884C88EA
:103EC00023438C882343CC8823430C8923434C8988
:103ED00023438C892343CC8923431A430280838B59
:103EE0004FF2FF74234083830B8A038210BD704717
:103EF0007FB5044651495248FEF72FF80F2094FB36
:103F0000F0F100FB114080BB4E4800884E49096823
:103F100009B1012100E000214C4A12784C4B1B886A
:103F2000CDE90032CDE902104A48037844480278CE
:103F300021464948FCF71EFA4FF4FA7002F024FBC0
:103F40004148001F006808B1012000E000204349FB
:103F50000978CDE900103948037841480278414892
:103F600001784148FCF706FA67E0FFE7FEF7E8FA58
:103F7000002862D00120102304221946009000205E
:103F8000FEF7DCFD0120102305221946009018469B
:103F9000FEF7D4FD012010230622194600902020B0
:103FA000FEF7CCFD01201023072219460090302097
:103FB000FEF7C4FD0120102308221946009040207E
:103FC000FEF7BCFD01201023092219460090502065
:103FD000FEF7B4FD0120102324A2194600906020B2
:103FE000FEF72EFE01201D49087018490870194976
:103FF00008701C4908701A49087018480078FEF7C4
:1040000019FA12480078FDF7DBFE12480078FEF737
:104010006BFB14480078FEF777FB11480078FEF739
:1040200083FBFEF78DFA054629461148FCF7A2F9F5
:1040300010A002F03BFD01F02FFB7FBD0700002028
:104040000600002004000020A00242420B000020D5
:104050000E00002008000020B09C00080C0000208A
:104060000A00002009000020E89B00082100000051
:10407000989D00086B7271740000000070B50446D2
:1040800000251BE004F0800020B180210D48FEF7E0
:1040900054FA03E080210B48FEF74DFAFEF7ACFA24
:1040A00040210848FEF749FAFEF7A6FA40210548E4
:1040B000FEF741FA6006040E681CC5B2082DE1DB6C
:1040C00070BD0000000C02400CB500200190009073
:1040D0003448006840F480303249086000BF3148FD
:1040E000006800F4003000900198401C0190009896
:1040F00018B90198B0F5A04FF1D12A48006800F432
:10410000003010B10120009001E0002000900098E4
:10411000012846D123484030006840F080502149B2
:10412000403108602048006840F440401E49086063
:104130001C48083000681B490831086008460068C0
:1041400040F4004008600846006840F4A050086051
:104150001648091F0860081F006840F08070091F9A
:10416000086000BF0F48006800F000700028F9D018
:1041700040F205700E4908600A480830006820F0D7
:1041800003000849083108600846006840F0020052
:10419000086000BF03480830006800F00C000828E1
:1041A000F8D10CBD003802400070004008544007B0
:1041B000003C024010B52DED088B00F043F8DFED18
:1041C0001C0A30EEC09A00F03DF8C9EE000AB2EECB
:1041D000040A20EE800AB0EE408AB3EE0A0AC8EE66
:1041E000000A10EE904A204603F060FB41EC1B0BE6
:1041F0009FED101BB0EE4B0AF0EE6B0A01F088FA4F
:10420000B0EE40AAF0EE60AA9FED0C0B53EC102B21
:1042100051EC1A0B03F054F841EC190B02F0A4FD19
:1042200008EE900AB0EE680ABDEC088B10BD0000E5
:1042300033335340000000C0F753F7BF000000A025
:104240009B94584010B52DED068B00249FED100A6D
:10425000B0EE408A0420FDF74BFC0446052002F036
:1042600093F9204602F0DDFF41EC1A0B9FED090B9C
:1042700053EC102B03F024F841EC190B02F074FD01
:1042800008EE100AB0EE480ABDEC068B10BD000027
:10429000000000006666666666664A3F042808D12C
:1042A0004FF0E021096941F004014FF0E022116173
:1042B00007E04FF0E021096921F004014FF0E0220E
:1042C000116170477047000010B51548006840F450
:1042D0007000134908601348006840F0010011495C
:1042E000086000200F49083108600E4800680E4938
:1042F00008400C4908600D48091D0860081F006847
:1043000020F48020091F0860002006490C31086055
:10431000FFF7DAFE4FF0006001498039086010BDF8
:1043200088ED00E000380240FFFFF6FE1030002468
:1043300030B58BB004460D4601210220FFF764F929
:1043400001210420FFF750F9022206212748FEF739
:10435000CFF8022207212548FEF7CAF802220821D9
:104360002248FEF7C5F84FF4E070099002208DF85E
:10437000280003208DF8290000208DF82A00012054
:104380008DF82B0009A91948FEF76AF8A8B2ADF814
:1043900018000020ADF81A000794ADF8200006A917
:1043A000134800F093F96020ADF804000120ADF847
:1043B00006000020ADF8100001A90D4800F094F8A7
:1043C00001A90B4800F0D8F801A9094800F026F926
:1043D0000821074800F0C6F80121054800F04EF812
:1043E0000121034800F059F80BB030BD000802402D
:1043F0000004004010B50121094800F05AF868B1E6
:104400000848008840F4004006490880012104481B
:1044100000F040F80021024800F03FF810BD000015
:1044200000140040100000207FB505460C46012115
:104430002020FFF7E9F80195ADF800400020ADF825
:104440000800ADF8020069460B4800F03FF9012270
:104450001146094800F03EF837208DF80C00002086
:104460008DF80D0001208DF80E008DF80F0003A8C7
:10447000FEF76CF97FBD00000014004021B10288F6
:1044800042F08002028004E002884FF67F731A40F7
:1044900002807047CA430282704721B1028842F00D
:1044A0000102028004E002884FF6FE731A40028087
:1044B000704730B50246002000230024158A05EA23
:1044C0000103958905EA010413B10CB1012000E054
:1044D000002030BD1AB183890B43838102E08389B8
:1044E0008B4383817047000070B5002400220023B5
:1044F000058C4FF6FE7635400584028C8388048B4C
:104500004FF68F752C40B51E2C400D882C43751E20
:104510002A408D892A434D882A43104DA84202D053
:104520000F4DA84213D14FF6F7752A40CD892A4383
:104530004FF6FB752A408D882A434FF6FF652B40C6
:104540004FF6FF552B400D8A2B434D8A2B4383801A
:1045500004838D684563028470BD00000000014043
:10456000000401400A460021018B4FF6F773194001
:10457000114301837047000070B50024002200231E
:10458000058C4FF6EF7635400584028C8388048BCA
:1045900048F6FF752C404FF6FF452C400D884FF62E
:1045A000FF7606EA05252C434FF6DF752A408D89F4
:1045B00006EA05152A434D8806EA05152A43154DD6
:1045C000A84202D0144DA8421DD14FF67F752A4053
:1045D000CD894FF6FF7606EA05152A434FF6BF75DB
:1045E0002A408D8806EA05152A434FF6FF352B40F1
:1045F0004FF2FF752B400D8A06EA85052B434D8A45
:1046000006EA85052B43838004838D6885630284D5
:1046100070BD0000000001400004014070B500249E
:1046200000220023058C4FF6FF6635400584028C7E
:104630008388848B4FF68F752C404FF6FC752C4089
:104640000D882C434FF6FF552A408D894FF6FF7693
:1046500006EA05252A434D8806EA05252A43154D15
:10466000A84202D0144DA8421DD14FF2FF752A4036
:10467000CD894FF6FF7606EA05252A434FF6FF352A
:104680002A408D8806EA05252A434EF6FF752B4001
:104690004DF6FF752B400D8A06EA05152B434D8A12
:1046A00006EA05152B43838084838D68C5630284E5
:1046B00070BD0000000001400004014041637047EC
:1046C00081637047C163704741627047002202886E
:1046D000184B98420ED0184B98420BD0B0F1804F37
:1046E00008D0164B984205D0154B984202D0154B76
:1046F000984204D14FF68F731A404B881A43124BDD
:10470000984207D0114B984204D04FF6FF431A400D
:104710000B891A4302804B68C3620B880385054BE3
:10472000984202D0044B984201D18B7A0386012330
:1047300083827047000001400004014000040040F3
:1047400000080040000C0040001000400014004031
:1047500008B5FE48008800F4004000287DD0FCA188
:10476000FD48FBF731FF002838D00020FB490880C6
:104770006C20FFF76FFA0020F94908800120F94901
:104780000860F949C1F89C021023F8A2194600906C
:104790000020FEF755FA0120102300221146009058
:1047A0001046FEF7CBF901201023024600210090AD
:1047B0001846FEF7C3F901201023022200210090C1
:1047C0002020FEF7BBF901201023032200210090D6
:1047D0003020FEF7B3F9FEF7DFF856E2E7A1DE4836
:1047E000FBF7F2FE002839D00220DC4908806C205B
:1047F000FFF7BAFA0420DA4908800120D949086095
:10480000D949C1F89C021023DEA21946009000206D
:10481000FEF716FA012010230E2200210090084610
:10482000FEF78CF9012010230F220021009018467A
:10483000FEF784F90120102302220021009020209D
:10484000FEF77CF901201023032200210090302084
:10485000FEF774F9FEF7A0F8E9E3EFE3CDA1BE4857
:10486000FBF7B2FE00284FD00420BC4908806C2022
:10487000FEF77EFFC9A002F019F90720B8490880A9
:104880000120FDF731FF0120FDF73EFF0120FDF77C
:104890004BFF0020FDF794FA0020C1490870FDF796
:1048A000C9FD0020BF490870AE4908600120AE492B
:1048B000C1F89C021023BCA2194600900020FEF70C
:1048C000BFF9012010231A46002100900846FEF788
:1048D00035F9012010231122002100901846FEF71F
:1048E0002DF9012010230222002100902020FEF744
:1048F00025F9012010230322002100903020FEF72B
:104900001DF9FEF749F892E3ADA19348FBF75CFE71
:1049100070B16C20FFF79EF90020914908800120BA
:104920001023A9A2002100904620FEF789F97EE31A
:10493000A7A18948FBF748FE68B16C20FFF7ACF8E7
:104940000120874908801023A3A20021009046205F
:10495000FEF776F96BE3A2A17F48FBF735FE70B155
:104960006C20FEF78BFF02207D4908800120102378
:104970009DA2002100904620FEF762F957E39DA119
:104980007548FBF721FE70B16C20FEF709FF03208C
:10499000734908800120102398A20021009046202E
:1049A000FEF74EF943E397A16B48FBF70DFE70B19C
:1049B0006C20FFF7C1F90420694908800120102309
:1049C00092A2002100904620FEF73AF92FE391A130
:1049D0006148FBF7F9FD70B16C20FEF7EDFF052093
:1049E0005F490880012010238CA2002100904620FE
:1049F000FEF726F91BE38BA15748FBF7E5FD70B1E5
:104A00006C20FFF7B7F806205549088001201023D5
:104A100086A2002100904620FEF712F907E385A147
:104A20004D48FBF7D1FD70B16C20FEF7A1FE0720C9
:104A30004B490880012010237FA2002100904620CE
:104A4000FEF7FEF8F3E27EA14348FBF7BDFD30B36D
:104A500043480088072821D2DFE800F004080C1042
:104A600014181C006C20FFF70DF917E06C20FFF7FD
:104A70002BF813E06C20FEF719FF0FE06C20FEF717
:104A8000A7FE0BE06C20FFF76FF907E06C20FEF744
:104A9000ABFF03E06C20FFF785F800BFC7E26AA117
:104AA0002D48FBF791FD30B32D480088072821D20F
:104AB000DFE800F004080C1014181C006C20FFF74D
:104AC000C9F817E06C20FEF7E7FF13E06C20FEF753
:104AD000D5FE0FE06C20FEF763FE0BE06C20FFF7C5
:104AE0002BF907E06C20FEF767FF03E06C20FFF76F
:104AF00041F800BF9BE256A11748FBF765FD18B3CC
:104B00000120102354A2002100904620FEF798F8BF
:104B10000A20134908806C20FEF7EEFF0A2001F0FE
:104B200033FD6C20FFF738F90A2001F02DFD6C20D1
:104B3000FEF7D4FE0A2001F027FD6C20FEF760FE90
:104B40000A2001F021FD8BE0A0E000001000002011
:104B5000627A6D73000000007200002004000020E3
:104B60000E000020A0024242000042425374616ED7
:104B700064617264204D6F646520200079646D73F8
:104B80000000000052656164696E67204D6F6465C6
:104B9000202020006C6A6D7300000000777A6C00A2
:104BA0000B0000200C00002041776179204D6F64DC
:104BB0006520202020202020202020200000000030
:104BC00077686974656B0000574849544520200098
:104BD0007265646B000000005245442020202000D4
:104BE000677265656E6B0000475245454E20202078
:104BF00000000000626C75656B00000042554C457A
:104C00002020200079656C6C6F776B0059454C4C07
:104C10004F572000707572706C656B005055525084
:104C20004C452000736B796B00000000534B5920FA
:104C30002020200067676700424C41434B20200042
:104C40006C646A78000000006C647A640000000004
:104C500071736878646B00004252454154484500C6
:104C60006C20FEF7B7FF0A2001F08EFC6C20FEF7E7
:104C7000D3FE0A2001F088FC6C20FFF71BF80A2005
:104C800001F082FC6C20FEF773FDD0E1ECA1ED4851
:104C9000FBF79AFC68B101201023EBA200210090E1
:104CA0004620FDF7CDFF02F007F80920E84908800B
:104CB000BDE1E8A1E348FBF787FC70B101201023B8
:104CC000E5A2002100904620FDF7BAFF6C2001F01C
:104CD000CEFD0820DE490880A9E1E1A1D948FBF713
:104CE00073FC78B10120DF49087008460078FDF7B1
:104CF00067F801201023DCA2194600900020FDF780
:104D00009FFF94E1DCA1CF48FBF75EFC78B1002067
:104D1000D449087008460078FDF752F801201023A6
:104D2000D6A2194600900020FDF78AFF7FE1D7A1A7
:104D3000C448FBF749FC68B10120D5490870FDF76C
:104D400079FB01201023D3A2194600900020FDF723
:104D500077FF6CE1D3A1BB48FBF736FC68B10020BC
:104D6000CB490870FDF766FB01201023CEA219463F
:104D700000900020FDF764FF59E1CFA1B148FBF797
:104D800023FC68B10120FDF7AFFC0120CB4908707E
:104D90001023CBA2194600900020FDF751FF46E1F9
:104DA000CBA1A848FBF710FC70B10020FDF79CFCDC
:104DB0000020C249087001201023C6A219460090A5
:104DC0000020FDF73DFF32E1C6A19E48FBF7FCFB4A
:104DD00078B10120C549087008460078FDF794FCB9
:104DE00001201023C2A2194600900020FDF728FFE1
:104DF0001DE1C2A19348FBF7E7FB78B10020BB4956
:104E0000087008460078FDF77FFC01201023BDA242
:104E1000194600900020FDF713FF08E1BCA1894866
:104E2000FBF7D2FB78B10120BB4908700846007837
:104E3000FDF77AFC01201023B8A21946009000204B
:104E4000FDF7FEFEF3E0B9A17E48FBF7BDFB78B1AC
:104E50000020B149087008460078FDF765FC012084
:104E60001023B4A2194600900020FDF7E9FEDEE011
:104E7000B4A17448FBF7A8FB50B10120B249086007
:104E80001023B2A2194600900020FDF7D9FECEE013
:104E9000B2A16C48FBF798FB58B10020AA49086002
:104EA00001201023AEA2194600900020FDF7C8FE95
:104EB000BDE0AFA16348FBF787FB58B10120A249D1
:104EC000091F08601023ABA2194600900020FDF7CF
:104ED000B7FEACE0ABA15B48FBF776FB60B100200E
:104EE0009949091F086001201023A7A219460090C4
:104EF0000020FDF7A5FE9AE0A7A15248FBF764FB4E
:104F0000F0B30020A649088001206C4908700846CB
:104F10000078FDF7E9FB0120102369A219460090F3
:104F20000020FDF78DFE6C20FEF794FE0120FCF7BB
:104F300047FF00204649088001204A4908708249FD
:104F400008609849C1F89C02102300221146009085
:104F50001046FDF7F3FD01201023024600210090CA
:104F60001846FDF7EBFD01201023022200210090DE
:104F70002020FDF7E3FD012010230322002100E0A3
:104F800006E000903020FDF7D9FDFDF705FD4EE06D
:104F900085A12C48FBF718FBF0B30420804908805A
:104FA0006C20FEF7E5FB0720294908800020FDF76B
:104FB0009BFB0020FDF7A8FB0020FDF7B5FB0020C0
:104FC0003E4908704949087053490870FCF7F8FEDB
:104FD000002024490870FDF72DFA00202C490870A4
:104FE0005949086001206F49C1F89C0210231A46F4
:104FF000002100900846FDF7A1FD01201023112299
:10500000002100901846FDF799FD0120102302228F
:1050100000210090202000E009E0FDF78FFD012035
:1050200010230322002100903020FDF787FD32215C
:105030000448FBF745FB00205D49088008BD0000DF
:105040007A6D640072000020484F525345202000C2
:105050000E000020636864005241494E424F5700E1
:10506000636C6B000B0000204375727461696E20E5
:105070006F6E202020000000636C6700437572741F
:1050800061696E206F6666202000000066736B0009
:105090000C00002066616E206F6E202020202020F2
:1050A000200000006673670066616E206F666620F0
:1050B0002020202020000000646D6B0008000020EC
:1050C000446F6F72206F6E2020202020200000008F
:1050D000646D6700446F6F72206F66662020202029
:1050E000200000007A776D6B0000000009000020AE
:1050F000426564726F6F6D206F6E20007A776D6706
:1051000000000000426564726F6F6D206F6666007C
:1051100067756573746B00000A000020477565733E
:1051200074206F6E202020202000000067756573BA
:10513000746700004775657374206F6666202020D1
:10514000200000006B746B00A00242424143206FBC
:105150006E20202020202020200000006B7467009B
:105160004143206F66662020202020202000000080
:1051700062786B006672696765206F6E2020202060
:1051800020000000627867006672696765206F66BC
:10519000662020202000000077686A6C0000000074
:1051A0000400002000004242777A6C6C6C6C0000B6
:1051B0001000002010B540F225511D4800F007F9FD
:1051C00010B31B4800F0BCF9C4B21A48008800F4C0
:1051D0000040C8B91748008800F4804060B10A2C2C
:1051E00003D000201349088020E01248008840F4D2
:1051F00000401049088019E00D2C06D10D480088A8
:1052000040F480400B49088010E00A480088C0F351
:105210000D0009490C5407480088401C05490880C6
:1052200008460088C72801DD0020088010BD000066
:10523000001001402C000020440F002010B540F267
:105240002551164800F0C3F8F8B1144800F078F979
:10525000C4B21348008800F40040B0B91048008878
:10526000322813DA00210F48FFF72EFA0C48008885
:1052700018B901210B48FFF710F909480188008887
:10528000401C074A10800848445405E00448008840
:1052900040F400400249088010BD00000048004072
:1052A00010000020001400407200002021B182890B
:1052B00042F40052828104E082894DF6FF731A4065
:1052C0008281704710B504463248844208D10121DA
:1052D0001020FEF7C9F900211020FEF7C5F957E0AC
:1052E0002D48844209D101214804FEF79DF900218F
:1052F0004FF40030FEF798F94AE02848844209D17B
:1053000001218804FEF790F900214FF48020FEF778
:105310008BF93DE02248844209D10121C804FEF7FF
:1053200083F900214FF40020FEF77EF930E01D489C
:10533000844209D101210805FEF776F900214FF4D6
:105340008010FEF771F923E01748844208D101214B
:105350002020FEF789F900212020FEF785F917E0CB
:105360001248844209D101218807FEF75DF9002126
:105370004FF08040FEF758F90AE00D48844207D10B
:1053800001214005FEF750F900216005FEF74CF9B8
:1053900010BD0000001001400044004000480040E3
:1053A000004C0040005000400014014000780040D4
:1053B000007C004002460020B1F5007F00D100BF14
:1053C00013880B400BB1012000E00020704770B53E
:1053D0000246002400230025002040F66A16B14250
:1053E00000D100BFC1F3421501F01F03012606FAE8
:1053F00003F3012D02D19689334006E0022D02D13C
:10540000168A334001E0968A33400C12012606FAD0
:1054100004F41688344013B10CB1012000E00020E0
:1054200070BDF0B50346002400260025002040F69C
:105430006A17B94200D100BF1846C1F3421401F007
:105440001F06012707FA06F5012C01D10C3004E0F4
:10545000022C01D1103000E014301AB107682F433C
:10546000076002E00768AF430760F0BD2DE9FF4722
:1054700005460E460024A14600BFA046B08900B1F3
:1054800000BF2C8A24F44054F08804432C82AC8959
:1054900041F20C608443B088318908437189084324
:1054A0000443AC81AC8A24F44074B0890443AC82D8
:1054B0006846FEF7E9F82048854202D01F48854239
:1054C00002D1DDF80C9001E0DDF80890A88900F425
:1054D000004040B109EBC90000EB091031684900F8
:1054E000B0FBF1F707E009EBC90000EB09103168E8
:1054F0008900B0FBF1F76420B7FBF0F0040120094C
:10550000642101FB1078A88900F4004040B13220EA
:1055100000EBC800B0FBF1F000F00700044308E026
:10552000322000EB08106421B0FBF1F000F00F0016
:1055300004432C81BDE8FF870010014000140140A6
:1055400001468888C0F308007047C1F308028280D2
:10555000704700BFFEE7000000B597B001210220B0
:10556000FEF742F801218803FEF74EF801214805B5
:10557000FEF73AF84FF40040159002208DF85800DD
:1055800000208DF85A0003208DF8590001208DF875
:105590005B0015A93C48FCF763FF05220F213A4840
:1055A000FCF7A6FF0020ADF840004FF48270ADF884
:1055B00042000020ADF84400ADF846000120ADF8EF
:1055C00048004002ADF84A001020ADF84C00002021
:1055D000ADF84E000720ADF8500010A92B48FEF79B
:1055E00068FC01212948FEF74FFC2948FCF728FDFB
:1055F00000BF2748FCF7D0FD0028FAD101902348CE
:105600000C30029023480390402004904FF4226015
:105610000590002006904FF48060079000200890CD
:1056200009900A904FF480300B9000200C900320DA
:105630000D9000200E900F9001A91548FCF7D8FDA1
:10564000012202211148FEF72BFC00211048FCF733
:10565000EBFC00BF0E48FCF79FFD0028FAD14FF489
:1056600022610B48FCF7F0FD01210948FCF7DCFC46
:10567000012000F089FF6C20FEF77AF8012000F08D
:1056800083FF17B000BD0000000402400038004056
:1056900070600240A400002010B5002400BF16E096
:1056A0006C20FEF7F9F901200A4908604FF4967062
:1056B00000F06AFF6C20FEF75BF800200649C1F895
:1056C0008C024FF4967000F05FFF601C84B2032CD4
:1056D000E6DB10BD8C0242420000424203B4019856
:1056E0004100009850EAC12018BF04204A0D18BF9D
:1056F00040F0010040F2FF72B2EB515F08BF40F092
:105700000200012808BF052002B070470000000019
:105710002DE9F04D2DED040B2DED0E8B96B0DDE94E
:105720002550279CDDF890A025F0004624F0004885
:10573000BAF1000F14BF0121002101EB4502FC4921
:1057400053184A1093422AD3002814BF0123002380
:1057500003EB44030B44F7498B4220D358EA000182
:105760009FEDF59B76D0DFF8D8B35D4503D1BAF154
:10577000000F05D188E0BAF1000F08BF002100D06A
:10578000012101EB450111F5001F08D8002814BFC5
:105790000121002101EB440111F5001F0BD99DED02
:1057A000261B9DED240B16B0BDEC0E8B04B0BDE89E
:1057B000F04D00F069BE0027002DBCBFE1498845CF
:1057C00021DAE1498845A8BF02271CDAC3451ADC63
:1057D000DE4901EB2851142908DDC1F1340220FA19
:1057E00002F101FA02F282420DD108E058B9C1F18A
:1057F000140228FA02F101FA02F2424503D101F043
:105800000101C1F1020756EA0A0124D1002C22DA73
:10581000002D18BF022F01D0012F0AD00220FAF765
:105820007AFF16B0BDEC0E8B04B0BDE8F04D00F071
:1058300013BE0220FAF76FFF00F00EFE51EC100BC2
:1058400001F086FA41EC100B16B0BDEC0E8B04B0E3
:10585000BDE8F08D18E09FEDBEAB9FEDBF8B00283B
:1058600071D1B848804522D105F1804010F58010F3
:1058700008BFBAF1000F07D0B3450ADC002CA8BF5F
:105880009DED260BE0DA0DE0B0EE490AF0EE690A74
:10589000DAE7002C06DA9DED260B51EC100B01F037
:1058A00057FA6FE0AE48784490ED000BCCE7D8454E
:1058B0004DD1002C48DA2EB186423AD1BAF1000F10
:1058C00042D126E0BAF1000F13D00220FAF723FFED
:1058D00000F0F6FD8DED020B9DED240B8DED000B20
:1058E00010EE900A039961F31E0003909DED020BE8
:1058F000AAE78DED02AB9DED240B1AEE901A10EE87
:10590000900A8DED000B61F31E0003909DED020BDC
:105910009AE78DED028B9DED240B18EE901A10EE98
:10592000900A8DED000B61F31E0003909DED020BBC
:105930008AE709DA9DED240B51EC190B53EC102B7F
:1059400001F000FB1EE020E09DED240B7CE7864289
:105950001BDAB4F1804F0DD0A4F10050B0F1FF502C
:1059600013D1002D11DB9DED240B51EC100B01F038
:1059700065F807E09DED240B53EC102B51EC100B58
:1059800000F0C2BC41EC100B5EE79DED240B51EC26
:10599000100B00F061FEBAF1000FCDE90E0142D10B
:1059A0009FED710B46B3A6F1E040B0F17F600CD0E3
:1059B0005E4538D1002D00DAA7B3022F0CBF0120BD
:1059C0004FF0FF3001F016FCDCE7002D01DD002C6C
:1059D0000DDA002D01DD002C1FDB002D16DA002C66
:1059E00014DB012F08BF9FED620B3FF42DAFB0EE2B
:1059F0004A0AF0EE6A0A27E7022F18BF002D0CD0E2
:105A0000012F0AD1002DFFF61FAF06E0002DB8BF11
:105A1000002C08DA012F3FF417AFB0EE480AF0EE81
:105A2000680A11E71BE0012000EBE57050EA07016E
:105A300015D0791EB0EE498AF0EE698A084308BF96
:105A40009FED4D8B4E480025804570DD4D494E48F9
:105A5000884514DDB0420DDB002C19DB2FE001205E
:105A6000FAF759FE16B0BDEC0E8B04B0BDE8F04D50
:105A700000F016BDB34502DC002C09DC1FE08642B5
:105A800002DA002C1BDA03E05E452BDD002C16DD6C
:105A90000220FAF740FE00F013FD8DED020B53ECEF
:105AA0001A2B51EC180B01F00BFCCDE90001039906
:105AB000019861F31E0003909DED020BC4E60220E5
:105AC000FAF729FE00F00CFD10EE901A18EE900A7D
:105AD0008DED020B8DED008B61F31E0003909DEDAB
